{
  "_format": "hh-sol-artifact-1",
  "contractName": "SousChef",
  "sourceName": "contracts/SousChef.sol",
  "abi": [
    {
      "inputs": [
        {
          "internalType": "contract IERC20",
          "name": "_syrup",
          "type": "address"
        },
        {
          "internalType": "uint256",
          "name": "_rewardPerBlock",
          "type": "uint256"
        },
        {
          "internalType": "uint256",
          "name": "_startBlock",
          "type": "uint256"
        },
        {
          "internalType": "uint256",
          "name": "_endBlock",
          "type": "uint256"
        }
      ],
      "stateMutability": "nonpayable",
      "type": "constructor"
    },
    {
      "anonymous": false,
      "inputs": [
        {
          "indexed": true,
          "internalType": "address",
          "name": "user",
          "type": "address"
        },
        {
          "indexed": false,
          "internalType": "uint256",
          "name": "amount",
          "type": "uint256"
        }
      ],
      "name": "Deposit",
      "type": "event"
    },
    {
      "anonymous": false,
      "inputs": [
        {
          "indexed": true,
          "internalType": "address",
          "name": "user",
          "type": "address"
        },
        {
          "indexed": false,
          "internalType": "uint256",
          "name": "amount",
          "type": "uint256"
        }
      ],
      "name": "EmergencyWithdraw",
      "type": "event"
    },
    {
      "anonymous": false,
      "inputs": [
        {
          "indexed": true,
          "internalType": "address",
          "name": "user",
          "type": "address"
        },
        {
          "indexed": false,
          "internalType": "uint256",
          "name": "amount",
          "type": "uint256"
        }
      ],
      "name": "Withdraw",
      "type": "event"
    },
    {
      "inputs": [],
      "name": "addressLength",
      "outputs": [
        {
          "internalType": "uint256",
          "name": "",
          "type": "uint256"
        }
      ],
      "stateMutability": "view",
      "type": "function"
    },
    {
      "inputs": [
        {
          "internalType": "uint256",
          "name": "",
          "type": "uint256"
        }
      ],
      "name": "addressList",
      "outputs": [
        {
          "internalType": "address",
          "name": "",
          "type": "address"
        }
      ],
      "stateMutability": "view",
      "type": "function"
    },
    {
      "inputs": [],
      "name": "bonusEndBlock",
      "outputs": [
        {
          "internalType": "uint256",
          "name": "",
          "type": "uint256"
        }
      ],
      "stateMutability": "view",
      "type": "function"
    },
    {
      "inputs": [
        {
          "internalType": "uint256",
          "name": "_amount",
          "type": "uint256"
        }
      ],
      "name": "deposit",
      "outputs": [],
      "stateMutability": "nonpayable",
      "type": "function"
    },
    {
      "inputs": [],
      "name": "emergencyWithdraw",
      "outputs": [],
      "stateMutability": "nonpayable",
      "type": "function"
    },
    {
      "inputs": [
        {
          "internalType": "address",
          "name": "_user",
          "type": "address"
        }
      ],
      "name": "pendingReward",
      "outputs": [
        {
          "internalType": "uint256",
          "name": "",
          "type": "uint256"
        }
      ],
      "stateMutability": "view",
      "type": "function"
    },
    {
      "inputs": [],
      "name": "poolInfo",
      "outputs": [
        {
          "internalType": "uint256",
          "name": "lastRewardBlock",
          "type": "uint256"
        },
        {
          "internalType": "uint256",
          "name": "accRewardPerShare",
          "type": "uint256"
        }
      ],
      "stateMutability": "view",
      "type": "function"
    },
    {
      "inputs": [],
      "name": "rewardPerBlock",
      "outputs": [
        {
          "internalType": "uint256",
          "name": "",
          "type": "uint256"
        }
      ],
      "stateMutability": "view",
      "type": "function"
    },
    {
      "inputs": [],
      "name": "startBlock",
      "outputs": [
        {
          "internalType": "uint256",
          "name": "",
          "type": "uint256"
        }
      ],
      "stateMutability": "view",
      "type": "function"
    },
    {
      "inputs": [],
      "name": "syrup",
      "outputs": [
        {
          "internalType": "contract IERC20",
          "name": "",
          "type": "address"
        }
      ],
      "stateMutability": "view",
      "type": "function"
    },
    {
      "inputs": [],
      "name": "updatePool",
      "outputs": [],
      "stateMutability": "nonpayable",
      "type": "function"
    },
    {
      "inputs": [
        {
          "internalType": "address",
          "name": "",
          "type": "address"
        }
      ],
      "name": "userInfo",
      "outputs": [
        {
          "internalType": "uint256",
          "name": "amount",
          "type": "uint256"
        },
        {
          "internalType": "uint256",
          "name": "rewardDebt",
          "type": "uint256"
        },
        {
          "internalType": "uint256",
          "name": "rewardPending",
          "type": "uint256"
        }
      ],
      "stateMutability": "view",
      "type": "function"
    },
    {
      "inputs": [
        {
          "internalType": "uint256",
          "name": "_amount",
          "type": "uint256"
        }
      ],
      "name": "withdraw",
      "outputs": [],
      "stateMutability": "nonpayable",
      "type": "function"
    }
  ],
  "bytecode": "0x608060405234801561001057600080fd5b506040516116aa3803806116aa8339818101604052608081101561003357600080fd5b8101908080519060200190929190805190602001909291908051906020019092919080519060200190929190505050836000806101000a81548173ffffffffffffffffffffffffffffffffffffffff021916908373ffffffffffffffffffffffffffffffffffffffff16021790555082600181905550816006819055508060078190555060405180604001604052806006548152602001600081525060026000820151816000015560208201518160010155905050505050506115af806100fb6000396000f3fe608060405234801561001057600080fd5b50600436106100cf5760003560e01c80638ae39cac1161008c578063db2e21bc11610066578063db2e21bc146102a1578063dc881888146102ab578063e3161ddd146102c9578063f40f0f52146102d3576100cf565b80638ae39cac146101fd578063b6b55f251461021b578063b810fb4314610249576100cf565b80631959a002146100d45780631aed65531461013a5780632e1a7d4d1461015857806348cd4cb1146101865780635a2f3d09146101a457806386a952c4146101c9575b600080fd5b610116600480360360208110156100ea57600080fd5b81019080803573ffffffffffffffffffffffffffffffffffffffff16906020019092919050505061032b565b60405180848152602001838152602001828152602001935050505060405180910390f35b610142610355565b6040518082815260200191505060405180910390f35b6101846004803603602081101561016e57600080fd5b810190808035906020019092919050505061035b565b005b61018e6105f4565b6040518082815260200191505060405180910390f35b6101ac6105fa565b604051808381526020018281526020019250505060405180910390f35b6101d161060c565b604051808273ffffffffffffffffffffffffffffffffffffffff16815260200191505060405180910390f35b610205610630565b6040518082815260200191505060405180910390f35b6102476004803603602081101561023157600080fd5b8101908080359060200190929190505050610636565b005b6102756004803603602081101561025f57600080fd5b81019080803590602001909291905050506108e8565b604051808273ffffffffffffffffffffffffffffffffffffffff16815260200191505060405180910390f35b6102a9610924565b005b6102b3610a1f565b6040518082815260200191505060405180910390f35b6102d1610a2c565b005b610315600480360360208110156102e957600080fd5b81019080803573ffffffffffffffffffffffffffffffffffffffff169060200190929190505050610ba3565b6040518082815260200191505060405180910390f35b60046020528060005260406000206000915090508060000154908060010154908060020154905083565b60075481565b600081116103d1576040517f08c379a00000000000000000000000000000000000000000000000000000000081526004018080602001828103825260088152602001807f616d6f756e74203000000000000000000000000000000000000000000000000081525060200191505060405180910390fd5b6000600460003373ffffffffffffffffffffffffffffffffffffffff1673ffffffffffffffffffffffffffffffffffffffff1681526020019081526020016000209050818160000154101561048e576040517f08c379a00000000000000000000000000000000000000000000000000000000081526004018080602001828103825260148152602001807f77697468647261773a206e6f7420656e6f75676800000000000000000000000081525060200191505060405180910390fd5b610496610a2c565b6104e1338360008054906101000a900473ffffffffffffffffffffffffffffffffffffffff1673ffffffffffffffffffffffffffffffffffffffff16610da79092919063ffffffff16565b6105408160020154610532836001015461052464e8d4a510006105166002600101548860000154610e4990919063ffffffff16565b610ecf90919063ffffffff16565b610f5890919063ffffffff16565b610fdb90919063ffffffff16565b816002018190555061055f828260000154610f5890919063ffffffff16565b816000018190555061059a64e8d4a5100061058c6002600101548460000154610e4990919063ffffffff16565b610ecf90919063ffffffff16565b81600101819055503373ffffffffffffffffffffffffffffffffffffffff167f884edad9ce6fa2440d8a54cc123490eb96d2768479d49ff9c7366125a9424364836040518082815260200191505060405180910390a25050565b60065481565b60028060000154908060010154905082565b60008054906101000a900473ffffffffffffffffffffffffffffffffffffffff1681565b60015481565b600081116106ac576040517f08c379a00000000000000000000000000000000000000000000000000000000081526004018080602001828103825260088152602001807f616d6f756e74203000000000000000000000000000000000000000000000000081525060200191505060405180910390fd5b6000600460003373ffffffffffffffffffffffffffffffffffffffff1673ffffffffffffffffffffffffffffffffffffffff16815260200190815260200160002090506106f7610a2c565b61074433308460008054906101000a900473ffffffffffffffffffffffffffffffffffffffff1673ffffffffffffffffffffffffffffffffffffffff16611063909392919063ffffffff16565b6000816000015414801561075c575060008160010154145b801561076c575060008160020154145b156107d5576005339080600181540180825580915050600190039060005260206000200160009091909190916101000a81548173ffffffffffffffffffffffffffffffffffffffff021916908373ffffffffffffffffffffffffffffffffffffffff1602179055505b6108348160020154610826836001015461081864e8d4a5100061080a6002600101548860000154610e4990919063ffffffff16565b610ecf90919063ffffffff16565b610f5890919063ffffffff16565b610fdb90919063ffffffff16565b8160020181905550610853828260000154610fdb90919063ffffffff16565b816000018190555061088e64e8d4a510006108806002600101548460000154610e4990919063ffffffff16565b610ecf90919063ffffffff16565b81600101819055503373ffffffffffffffffffffffffffffffffffffffff167fe1fffcc4923d04b559f4d29a8bfc6cda04eb5b0d3c460751c2402c5c5cc9109c836040518082815260200191505060405180910390a25050565b600581815481106108f557fe5b906000526020600020016000915054906101000a900473ffffffffffffffffffffffffffffffffffffffff1681565b6000600460003373ffffffffffffffffffffffffffffffffffffffff1673ffffffffffffffffffffffffffffffffffffffff16815260200190815260200160002090506109b633826000015460008054906101000a900473ffffffffffffffffffffffffffffffffffffffff1673ffffffffffffffffffffffffffffffffffffffff16610da79092919063ffffffff16565b3373ffffffffffffffffffffffffffffffffffffffff167f5fafa99d0643513820be26656b45130b01e1c03062e1266bf36f88cbd3bd969582600001546040518082815260200191505060405180910390a2600081600001819055506000816001018190555050565b6000600580549050905090565b6002600001544311610a3d57610ba1565b60008060009054906101000a900473ffffffffffffffffffffffffffffffffffffffff1673ffffffffffffffffffffffffffffffffffffffff166370a08231306040518263ffffffff1660e01b8152600401808273ffffffffffffffffffffffffffffffffffffffff16815260200191505060206040518083038186803b158015610ac757600080fd5b505afa158015610adb573d6000803e3d6000fd5b505050506040513d6020811015610af157600080fd5b810190808051906020019092919050505090506000811415610b1d574360026000018190555050610ba1565b6000610b2e60026000015443611124565b90506000610b4760015483610e4990919063ffffffff16565b9050610b8a610b7684610b6864e8d4a5100085610e4990919063ffffffff16565b610ecf90919063ffffffff16565b600260010154610fdb90919063ffffffff16565b600260010181905550436002600001819055505050505b565b600080600290506000600460008573ffffffffffffffffffffffffffffffffffffffff1673ffffffffffffffffffffffffffffffffffffffff168152602001908152602001600020905060008260010154905060008060009054906101000a900473ffffffffffffffffffffffffffffffffffffffff1673ffffffffffffffffffffffffffffffffffffffff166370a08231306040518263ffffffff1660e01b8152600401808273ffffffffffffffffffffffffffffffffffffffff16815260200191505060206040518083038186803b158015610c8057600080fd5b505afa158015610c94573d6000803e3d6000fd5b505050506040513d6020811015610caa57600080fd5b81019080805190602001909291905050509050836000015443118015610cd1575060008114155b15610d42576000610ce6856000015443611124565b90506000610cff60015483610e4990919063ffffffff16565b9050610d3d610d2e84610d2064e8d4a5100085610e4990919063ffffffff16565b610ecf90919063ffffffff16565b85610fdb90919063ffffffff16565b935050505b610d9c8360020154610d8e8560010154610d8064e8d4a51000610d72888a60000154610e4990919063ffffffff16565b610ecf90919063ffffffff16565b610f5890919063ffffffff16565b610fdb90919063ffffffff16565b945050505050919050565b610e448363a9059cbb60e01b8484604051602401808373ffffffffffffffffffffffffffffffffffffffff16815260200182815260200192505050604051602081830303815290604052907bffffffffffffffffffffffffffffffffffffffffffffffffffffffff19166020820180517bffffffffffffffffffffffffffffffffffffffffffffffffffffffff8381831617835250505050611179565b505050565b600080831415610e5c5760009050610ec9565b6000828402905082848281610e6d57fe5b0414610ec4576040517f08c379a000000000000000000000000000000000000000000000000000000000815260040180806020018281038252602181526020018061152f6021913960400191505060405180910390fd5b809150505b92915050565b6000808211610f46576040517f08c379a000000000000000000000000000000000000000000000000000000000815260040180806020018281038252601a8152602001807f536166654d6174683a206469766973696f6e206279207a65726f00000000000081525060200191505060405180910390fd5b818381610f4f57fe5b04905092915050565b600082821115610fd0576040517f08c379a000000000000000000000000000000000000000000000000000000000815260040180806020018281038252601e8152602001807f536166654d6174683a207375627472616374696f6e206f766572666c6f77000081525060200191505060405180910390fd5b818303905092915050565b600080828401905083811015611059576040517f08c379a000000000000000000000000000000000000000000000000000000000815260040180806020018281038252601b8152602001807f536166654d6174683a206164646974696f6e206f766572666c6f77000000000081525060200191505060405180910390fd5b8091505092915050565b61111e846323b872dd60e01b858585604051602401808473ffffffffffffffffffffffffffffffffffffffff1681526020018373ffffffffffffffffffffffffffffffffffffffff1681526020018281526020019350505050604051602081830303815290604052907bffffffffffffffffffffffffffffffffffffffffffffffffffffffff19166020820180517bffffffffffffffffffffffffffffffffffffffffffffffffffffffff8381831617835250505050611179565b50505050565b60006007548211611149576111428383610f5890919063ffffffff16565b9050611173565b600754831061115b5760009050611173565b61117083600754610f5890919063ffffffff16565b90505b92915050565b60606111db826040518060400160405280602081526020017f5361666545524332303a206c6f772d6c6576656c2063616c6c206661696c65648152508573ffffffffffffffffffffffffffffffffffffffff166112689092919063ffffffff16565b9050600081511115611263578080602001905160208110156111fc57600080fd5b8101908080519060200190929190505050611262576040517f08c379a000000000000000000000000000000000000000000000000000000000815260040180806020018281038252602a815260200180611550602a913960400191505060405180910390fd5b5b505050565b60606112778484600085611280565b90509392505050565b6060824710156112db576040517f08c379a00000000000000000000000000000000000000000000000000000000081526004018080602001828103825260268152602001806115096026913960400191505060405180910390fd5b6112e485611429565b611356576040517f08c379a000000000000000000000000000000000000000000000000000000000815260040180806020018281038252601d8152602001807f416464726573733a2063616c6c20746f206e6f6e2d636f6e747261637400000081525060200191505060405180910390fd5b600060608673ffffffffffffffffffffffffffffffffffffffff1685876040518082805190602001908083835b602083106113a65780518252602082019150602081019050602083039250611383565b6001836020036101000a03801982511681845116808217855250505050505090500191505060006040518083038185875af1925050503d8060008114611408576040519150601f19603f3d011682016040523d82523d6000602084013e61140d565b606091505b509150915061141d82828661143c565b92505050949350505050565b600080823b905060008111915050919050565b6060831561144c57829050611501565b60008351111561145f5782518084602001fd5b816040517f08c379a00000000000000000000000000000000000000000000000000000000081526004018080602001828103825283818151815260200191508051906020019080838360005b838110156114c65780820151818401526020810190506114ab565b50505050905090810190601f1680156114f35780820380516001836020036101000a031916815260200191505b509250505060405180910390fd5b939250505056fe416464726573733a20696e73756666696369656e742062616c616e636520666f722063616c6c536166654d6174683a206d756c7469706c69636174696f6e206f766572666c6f775361666545524332303a204552433230206f7065726174696f6e20646964206e6f742073756363656564a264697066735822122064158e3ae7f03802daa35089cb5ab96d07159227f5bc1e895e8c6bd6390d0b3d64736f6c634300060c0033",
  "linkReferences": {},
  "deployedLinkReferences": {}
}